01001000011234567890SAVINGS             000450000EUR
01001000011234567891BUDGET              000100000DKK
01001000011234567892LOAN                016000000DKK
