0100100001Emil                Heilbo              DABADKKK990100100001000450000EUR
0100100002Jens                Jensen              DABADKKK990100100002000100000DKK
0100100003John                Hansen              DABADKKK990100100003004500000DKK
0100100001John                Doe                 DABADKKK990100100004000500000USD
0100100005Maia                Crimew              DABADKKK990100100005500000000CHF
